{
  "contractName": "UniswapV2Router02",
  "abi": [
    {
      "inputs": [
        {
          "internalType": "address",
          "name": "_factory",
          "type": "address"
        },
        {
          "internalType": "address",
          "name": "_WETH",
          "type": "address"
        }
      ],
      "stateMutability": "nonpayable",
      "type": "constructor"
    },
    {
      "inputs": [],
      "name": "WETH",
      "outputs": [
        {
          "internalType": "address",
          "name": "",
          "type": "address"
        }
      ],
      "stateMutability": "view",
      "type": "function"
    },
    {
      "inputs": [],
      "name": "factory",
      "outputs": [
        {
          "internalType": "address",
          "name": "",
          "type": "address"
        }
      ],
      "stateMutability": "view",
      "type": "function"
    },
    {
      "stateMutability": "payable",
      "type": "receive"
    },
    {
      "inputs": [
        {
          "internalType": "address",
          "name": "tokenA",
          "type": "address"
        },
        {
          "internalType": "address",
          "name": "tokenB",
          "type": "address"
        },
        {
          "internalType": "uint256",
          "name": "amountADesired",
          "type": "uint256"
        },
        {
          "internalType": "uint256",
          "name": "amountBDesired",
          "type": "uint256"
        },
        {
          "internalType": "uint256",
          "name": "amountAMin",
          "type": "uint256"
        },
        {
          "internalType": "uint256",
          "name": "amountBMin",
          "type": "uint256"
        },
        {
          "internalType": "address",
          "name": "to",
          "type": "address"
        },
        {
          "internalType": "uint256",
          "name": "deadline",
          "type": "uint256"
        }
      ],
      "name": "addLiquidity",
      "outputs": [
        {
          "internalType": "uint256",
          "name": "amountA",
          "type": "uint256"
        },
        {
          "internalType": "uint256",
          "name": "amountB",
          "type": "uint256"
        },
        {
          "internalType": "uint256",
          "name": "liquidity",
          "type": "uint256"
        }
      ],
      "stateMutability": "nonpayable",
      "type": "function"
    },
    {
      "inputs": [
        {
          "internalType": "address",
          "name": "token",
          "type": "address"
        },
        {
          "internalType": "uint256",
          "name": "amountTokenDesired",
          "type": "uint256"
        },
        {
          "internalType": "uint256",
          "name": "amountTokenMin",
          "type": "uint256"
        },
        {
          "internalType": "uint256",
          "name": "amountETHMin",
          "type": "uint256"
        },
        {
          "internalType": "address",
          "name": "to",
          "type": "address"
        }
      ],
      "name": "addLiquidityETH",
      "outputs": [
        {
          "internalType": "uint256",
          "name": "amountToken",
          "type": "uint256"
        },
        {
          "internalType": "uint256",
          "name": "amountETH",
          "type": "uint256"
        },
        {
          "internalType": "uint256",
          "name": "liquidity",
          "type": "uint256"
        }
      ],
      "stateMutability": "payable",
      "type": "function"
    },
    {
      "inputs": [
        {
          "internalType": "uint256",
          "name": "amountIn",
          "type": "uint256"
        },
        {
          "internalType": "uint256",
          "name": "amountOutMin",
          "type": "uint256"
        },
        {
          "internalType": "address[]",
          "name": "path",
          "type": "address[]"
        },
        {
          "internalType": "address",
          "name": "to",
          "type": "address"
        },
        {
          "internalType": "uint256",
          "name": "deadline",
          "type": "uint256"
        }
      ],
      "name": "swapExactTokensForTokens",
      "outputs": [
        {
          "internalType": "uint256[]",
          "name": "amounts",
          "type": "uint256[]"
        }
      ],
      "stateMutability": "nonpayable",
      "type": "function"
    },
    {
      "inputs": [
        {
          "internalType": "uint256",
          "name": "amountOut",
          "type": "uint256"
        },
        {
          "internalType": "uint256",
          "name": "amountInMax",
          "type": "uint256"
        },
        {
          "internalType": "address[]",
          "name": "path",
          "type": "address[]"
        },
        {
          "internalType": "address",
          "name": "to",
          "type": "address"
        },
        {
          "internalType": "uint256",
          "name": "deadline",
          "type": "uint256"
        }
      ],
      "name": "swapTokensForExactTokens",
      "outputs": [
        {
          "internalType": "uint256[]",
          "name": "amounts",
          "type": "uint256[]"
        }
      ],
      "stateMutability": "nonpayable",
      "type": "function"
    },
    {
      "inputs": [
        {
          "internalType": "uint256",
          "name": "amountOutMin",
          "type": "uint256"
        },
        {
          "internalType": "address[]",
          "name": "path",
          "type": "address[]"
        },
        {
          "internalType": "address",
          "name": "to",
          "type": "address"
        },
        {
          "internalType": "uint256",
          "name": "deadline",
          "type": "uint256"
        }
      ],
      "name": "swapExactETHForTokens",
      "outputs": [
        {
          "internalType": "uint256[]",
          "name": "amounts",
          "type": "uint256[]"
        }
      ],
      "stateMutability": "payable",
      "type": "function"
    },
    {
      "inputs": [
        {
          "internalType": "uint256",
          "name": "amountOut",
          "type": "uint256"
        },
        {
          "internalType": "uint256",
          "name": "amountInMax",
          "type": "uint256"
        },
        {
          "internalType": "address[]",
          "name": "path",
          "type": "address[]"
        },
        {
          "internalType": "address",
          "name": "to",
          "type": "address"
        },
        {
          "internalType": "uint256",
          "name": "deadline",
          "type": "uint256"
        }
      ],
      "name": "swapTokensForExactETH",
      "outputs": [
        {
          "internalType": "uint256[]",
          "name": "amounts",
          "type": "uint256[]"
        }
      ],
      "stateMutability": "nonpayable",
      "type": "function"
    },
    {
      "inputs": [
        {
          "internalType": "uint256",
          "name": "amountIn",
          "type": "uint256"
        },
        {
          "internalType": "uint256",
          "name": "amountOutMin",
          "type": "uint256"
        },
        {
          "internalType": "address[]",
          "name": "path",
          "type": "address[]"
        },
        {
          "internalType": "address",
          "name": "to",
          "type": "address"
        },
        {
          "internalType": "uint256",
          "name": "deadline",
          "type": "uint256"
        }
      ],
      "name": "swapExactTokensForETH",
      "outputs": [
        {
          "internalType": "uint256[]",
          "name": "amounts",
          "type": "uint256[]"
        }
      ],
      "stateMutability": "nonpayable",
      "type": "function"
    },
    {
      "inputs": [
        {
          "internalType": "uint256",
          "name": "amountOut",
          "type": "uint256"
        },
        {
          "internalType": "address[]",
          "name": "path",
          "type": "address[]"
        },
        {
          "internalType": "address",
          "name": "to",
          "type": "address"
        },
        {
          "internalType": "uint256",
          "name": "deadline",
          "type": "uint256"
        }
      ],
      "name": "swapETHForExactTokens",
      "outputs": [
        {
          "internalType": "uint256[]",
          "name": "amounts",
          "type": "uint256[]"
        }
      ],
      "stateMutability": "payable",
      "type": "function"
    },
    {
      "inputs": [
        {
          "internalType": "uint256",
          "name": "amountIn",
          "type": "uint256"
        },
        {
          "internalType": "uint256",
          "name": "amountOutMin",
          "type": "uint256"
        },
        {
          "internalType": "address[]",
          "name": "path",
          "type": "address[]"
        },
        {
          "internalType": "address",
          "name": "to",
          "type": "address"
        },
        {
          "internalType": "uint256",
          "name": "deadline",
          "type": "uint256"
        }
      ],
      "name": "swapExactTokensForTokensSupportingFeeOnTransferTokens",
      "outputs": [],
      "stateMutability": "nonpayable",
      "type": "function"
    },
    {
      "inputs": [
        {
          "internalType": "uint256",
          "name": "amountOutMin",
          "type": "uint256"
        },
        {
          "internalType": "address[]",
          "name": "path",
          "type": "address[]"
        },
        {
          "internalType": "address",
          "name": "to",
          "type": "address"
        },
        {
          "internalType": "uint256",
          "name": "deadline",
          "type": "uint256"
        }
      ],
      "name": "swapExactETHForTokensSupportingFeeOnTransferTokens",
      "outputs": [],
      "stateMutability": "payable",
      "type": "function"
    },
    {
      "inputs": [
        {
          "internalType": "uint256",
          "name": "amountIn",
          "type": "uint256"
        },
        {
          "internalType": "uint256",
          "name": "amountOutMin",
          "type": "uint256"
        },
        {
          "internalType": "address[]",
          "name": "path",
          "type": "address[]"
        },
        {
          "internalType": "address",
          "name": "to",
          "type": "address"
        },
        {
          "internalType": "uint256",
          "name": "deadline",
          "type": "uint256"
        }
      ],
      "name": "swapExactTokensForETHSupportingFeeOnTransferTokens",
      "outputs": [],
      "stateMutability": "nonpayable",
      "type": "function"
    },
    {
      "inputs": [
        {
          "internalType": "uint256",
          "name": "amountA",
          "type": "uint256"
        },
        {
          "internalType": "uint256",
          "name": "reserveA",
          "type": "uint256"
        },
        {
          "internalType": "uint256",
          "name": "reserveB",
          "type": "uint256"
        }
      ],
      "name": "quote",
      "outputs": [
        {
          "internalType": "uint256",
          "name": "amountB",
          "type": "uint256"
        }
      ],
      "stateMutability": "pure",
      "type": "function"
    },
    {
      "inputs": [
        {
          "internalType": "uint256",
          "name": "amountIn",
          "type": "uint256"
        },
        {
          "internalType": "uint256",
          "name": "reserveIn",
          "type": "uint256"
        },
        {
          "internalType": "uint256",
          "name": "reserveOut",
          "type": "uint256"
        }
      ],
      "name": "getAmountOut",
      "outputs": [
        {
          "internalType": "uint256",
          "name": "amountOut",
          "type": "uint256"
        }
      ],
      "stateMutability": "pure",
      "type": "function"
    },
    {
      "inputs": [
        {
          "internalType": "uint256",
          "name": "amountOut",
          "type": "uint256"
        },
        {
          "internalType": "uint256",
          "name": "reserveIn",
          "type": "uint256"
        },
        {
          "internalType": "uint256",
          "name": "reserveOut",
          "type": "uint256"
        }
      ],
      "name": "getAmountIn",
      "outputs": [
        {
          "internalType": "uint256",
          "name": "amountIn",
          "type": "uint256"
        }
      ],
      "stateMutability": "pure",
      "type": "function"
    },
    {
      "inputs": [
        {
          "internalType": "uint256",
          "name": "amountIn",
          "type": "uint256"
        },
        {
          "internalType": "address[]",
          "name": "path",
          "type": "address[]"
        }
      ],
      "name": "getAmountsOut",
      "outputs": [
        {
          "internalType": "uint256[]",
          "name": "amounts",
          "type": "uint256[]"
        }
      ],
      "stateMutability": "view",
      "type": "function"
    },
    {
      "inputs": [
        {
          "internalType": "uint256",
          "name": "amountOut",
          "type": "uint256"
        },
        {
          "internalType": "address[]",
          "name": "path",
          "type": "address[]"
        }
      ],
      "name": "getAmountsIn",
      "outputs": [
        {
          "internalType": "uint256[]",
          "name": "amounts",
          "type": "uint256[]"
        }
      ],
      "stateMutability": "view",
      "type": "function"
    },
    {
      "inputs": [
        {
          "internalType": "address",
          "name": "token0",
          "type": "address"
        },
        {
          "internalType": "address",
          "name": "token1",
          "type": "address"
        }
      ],
      "name": "getPairFor",
      "outputs": [
        {
          "internalType": "address",
          "name": "pair",
          "type": "address"
        }
      ],
      "stateMutability": "view",
      "type": "function"
    }
  ],
  "bytecode": "0x60c060405234801561001057600080fd5b50604051620053c0380380620053c08339818101604052604081101561003557600080fd5b8101908080519060200190929190805190602001909291905050508173ffffffffffffffffffffffffffffffffffffffff1660808173ffffffffffffffffffffffffffffffffffffffff1660601b815250508073ffffffffffffffffffffffffffffffffffffffff1660a08173ffffffffffffffffffffffffffffffffffffffff1660601b81525050505060805160601c60a05160601c6151e6620001da6000398061011f528061108a5280611368528061166752806119425280611d575280611db05280611de45280611e65528061202a5280612217528061234a528061241f52806125e7528061267c5280612a575280612a915280612b805280612c01528061317b528061334052806133d552508061117c5280611288528061143a528061146f528061157b528061175952806118625280611a405280611d8e528061214a52806123ed528061250c52806126bb5280612864528061296d5280612c405280612ff3528061301c528061306c528061326852806134145280613cba5280613cfe52806141d25280614439528061469252806147ba52806148d052506151e66000f3fe6080604052600436106101185760003560e01c80637ff36ab5116100a0578063b6f9de9511610064578063b6f9de9514610c60578063c45a015514610d0d578063d06ca61f14610d64578063e8e3370014610e88578063fb3bdb4114610f6e57610174565b80637ff36ab51461092857806385f8c25914610a2a5780638803dbee14610a8d578063ad5c464814610ba6578063ad615dec14610bfd57610174565b80634a25d94a116100e75780634a25d94a146105325780635c11d7951461064b578063772157901461070f578063791ac947146107b35780637cdae10f1461087757610174565b8063054d50d41461017957806318cbafe5146101dc5780631f00ca74146102f557806338ed17391461041957610174565b36610174577f000000000000000000000000000000000000000000000000000000000000000073ffffffffffffffffffffffffffffffffffffffff163373ffffffffffffffffffffffffffffffffffffffff161461017257fe5b005b600080fd5b34801561018557600080fd5b506101c66004803603606081101561019c57600080fd5b81019080803590602001909291908035906020019092919080359060200190929190505050611070565b6040518082815260200191505060405180910390f35b3480156101e857600080fd5b5061029e600480360360a08110156101ff57600080fd5b8101908080359060200190929190803590602001909291908035906020019064010000000081111561023057600080fd5b82018360208201111561024257600080fd5b8035906020019184602083028401116401000000008311171561026457600080fd5b9091929391929390803573ffffffffffffffffffffffffffffffffffffffff16906020019092919080359060200190929190505050611086565b6040518080602001828103825283818151815260200191508051906020019060200280838360005b838110156102e15780820151818401526020810190506102c6565b505050509050019250505060405180910390f35b34801561030157600080fd5b506103c26004803603604081101561031857600080fd5b81019080803590602001909291908035906020019064010000000081111561033f57600080fd5b82018360208201111561035157600080fd5b8035906020019184602083028401116401000000008311171561037357600080fd5b919080806020026020016040519081016040528093929190818152602001838360200280828437600081840152601f19601f820116905080830192505050505050509192919290505050611433565b6040518080602001828103825283818151815260200191508051906020019060200280838360005b838110156104055780820151818401526020810190506103ea565b505050509050019250505060405180910390f35b34801561042557600080fd5b506104db600480360360a081101561043c57600080fd5b8101908080359060200190929190803590602001909291908035906020019064010000000081111561046d57600080fd5b82018360208201111561047f57600080fd5b803590602001918460208302840111640100000000831117156104a157600080fd5b9091929391929390803573ffffffffffffffffffffffffffffffffffffffff16906020019092919080359060200190929190505050611468565b6040518080602001828103825283818151815260200191508051906020019060200280838360005b8381101561051e578082015181840152602081019050610503565b505050509050019250505060405180910390f35b34801561053e57600080fd5b506105f4600480360360a081101561055557600080fd5b8101908080359060200190929190803590602001909291908035906020019064010000000081111561058657600080fd5b82018360208201111561059857600080fd5b803590602001918460208302840111640100000000831117156105ba57600080fd5b9091929391929390803573ffffffffffffffffffffffffffffffffffffffff16906020019092919080359060200190929190505050611663565b6040518080602001828103825283818151815260200191508051906020019060200280838360005b8381101561063757808201518184015260208101905061061c565b505050509050019250505060405180910390f35b34801561065757600080fd5b5061070d600480360360a081101561066e57600080fd5b8101908080359060200190929190803590602001909291908035906020019064010000000081111561069f57600080fd5b8201836020820111156106b157600080fd5b803590602001918460208302840111640100000000831117156106d357600080fd5b9091929391929390803573ffffffffffffffffffffffffffffffffffffffff16906020019092919080359060200190929190505050611a0d565b005b61078f600480360360a081101561072557600080fd5b81019080803573ffffffffffffffffffffffffffffffffffffffff169060200190929190803590602001909291908035906020019092919080359060200190929190803573ffffffffffffffffffffffffffffffffffffffff169060200190929190505050611d4c565b60405180848152602001838152602001828152602001935050505060405180910390f35b3480156107bf57600080fd5b50610875600480360360a08110156107d657600080fd5b8101908080359060200190929190803590602001909291908035906020019064010000000081111561080757600080fd5b82018360208201111561081957600080fd5b8035906020019184602083028401116401000000008311171561083b57600080fd5b9091929391929390803573ffffffffffffffffffffffffffffffffffffffff16906020019092919080359060200190929190505050612028565b005b34801561088357600080fd5b506108e66004803603604081101561089a57600080fd5b81019080803573ffffffffffffffffffffffffffffffffffffffff169060200190929190803573ffffffffffffffffffffffffffffffffffffffff1690602001909291905050506123e6565b604051808273ffffffffffffffffffffffffffffffffffffffff1673ffffffffffffffffffffffffffffffffffffffff16815260200191505060405180910390f35b6109d36004803603608081101561093e57600080fd5b81019080803590602001909291908035906020019064010000000081111561096557600080fd5b82018360208201111561097757600080fd5b8035906020019184602083028401116401000000008311171561099957600080fd5b9091929391929390803573ffffffffffffffffffffffffffffffffffffffff1690602001909291908035906020019092919050505061241b565b6040518080602001828103825283818151815260200191508051906020019060200280838360005b83811015610a165780820151818401526020810190506109fb565b505050509050019250505060405180910390f35b348015610a3657600080fd5b50610a7760048036036060811015610a4d57600080fd5b81019080803590602001909291908035906020019092919080359060200190929190505050612847565b6040518082815260200191505060405180910390f35b348015610a9957600080fd5b50610b4f600480360360a0811015610ab057600080fd5b81019080803590602001909291908035906020019092919080359060200190640100000000811115610ae157600080fd5b820183602082011115610af357600080fd5b80359060200191846020830284011164010000000083111715610b1557600080fd5b9091929391929390803573ffffffffffffffffffffffffffffffffffffffff1690602001909291908035906020019092919050505061285d565b6040518080602001828103825283818151815260200191508051906020019060200280838360005b83811015610b92578082015181840152602081019050610b77565b505050509050019250505060405180910390f35b348015610bb257600080fd5b50610bbb612a55565b604051808273ffffffffffffffffffffffffffffffffffffffff1673ffffffffffffffffffffffffffffffffffffffff16815260200191505060405180910390f35b348015610c0957600080fd5b50610c4a60048036036060811015610c2057600080fd5b81019080803590602001909291908035906020019092919080359060200190929190505050612a79565b6040518082815260200191505060405180910390f35b610d0b60048036036080811015610c7657600080fd5b810190808035906020019092919080359060200190640100000000811115610c9d57600080fd5b820183602082011115610caf57600080fd5b80359060200191846020830284011164010000000083111715610cd157600080fd5b9091929391929390803573ffffffffffffffffffffffffffffffffffffffff16906020019092919080359060200190929190505050612a8f565b005b348015610d1957600080fd5b50610d22612ff1565b604051808273ffffffffffffffffffffffffffffffffffffffff1673ffffffffffffffffffffffffffffffffffffffff16815260200191505060405180910390f35b348015610d7057600080fd5b50610e3160048036036040811015610d8757600080fd5b810190808035906020019092919080359060200190640100000000811115610dae57600080fd5b820183602082011115610dc057600080fd5b80359060200191846020830284011164010000000083111715610de257600080fd5b919080806020026020016040519081016040528093929190818152602001838360200280828437600081840152601f19601f820116905080830192505050505050509192919290505050613015565b6040518080602001828103825283818151815260200191508051906020019060200280838360005b83811015610e74578082015181840152602081019050610e59565b505050509050019250505060405180910390f35b348015610e9457600080fd5b50610f4a6004803603610100811015610eac57600080fd5b81019080803573ffffffffffffffffffffffffffffffffffffffff169060200190929190803573ffffffffffffffffffffffffffffffffffffffff16906020019092919080359060200190929190803590602001909291908035906020019092919080359060200190929190803573ffffffffffffffffffffffffffffffffffffffff1690602001909291908035906020019092919050505061304a565b60405180848152602001838152602001828152602001935050505060405180910390f35b61101960048036036080811015610f8457600080fd5b810190808035906020019092919080359060200190640100000000811115610fab57600080fd5b820183602082011115610fbd57600080fd5b80359060200191846020830284011164010000000083111715610fdf57600080fd5b9091929391929390803573ffffffffffffffffffffffffffffffffffffffff16906020019092919080359060200190929190505050613177565b6040518080602001828103825283818151815260200191508051906020019060200280838360005b8381101561105c578082015181840152602081019050611041565b505050509050019250505060405180910390f35b600061107d8484846135dd565b90509392505050565b60607f000000000000000000000000000000000000000000000000000000000000000073ffffffffffffffffffffffffffffffffffffffff168585600188889050038181106110d157fe5b9050602002013573ffffffffffffffffffffffffffffffffffffffff1673ffffffffffffffffffffffffffffffffffffffff1614611177576040517f08c379a000000000000000000000000000000000000000000000000000000000815260040180806020018281038252601d8152602001807f556e69737761705632526f757465723a20494e56414c49445f5041544800000081525060200191505060405180910390fd5b6111e37f000000000000000000000000000000000000000000000000000000000000000088878780806020026020016040519081016040528093929190818152602001838360200280828437600081840152601f19601f8201169050808301925050505050505061370d565b905085816001835103815181106111f657fe5b60200260200101511015611255576040517f08c379a000000000000000000000000000000000000000000000000000000000815260040180806020018281038252602b815260200180615137602b913960400191505060405180910390fd5b61131a8585600081811061126557fe5b9050602002013573ffffffffffffffffffffffffffffffffffffffff16336113007f0000000000000000000000000000000000000000000000000000000000000000898960008181106112b457fe5b9050602002013573ffffffffffffffffffffffffffffffffffffffff168a8a60018181106112de57fe5b9050602002013573ffffffffffffffffffffffffffffffffffffffff16613885565b8460008151811061130d57fe5b60200260200101516139e0565b61136681868680806020026020016040519081016040528093929190818152602001838360200280828437600081840152601f19601f8201169050808301925050505050505030613bf1565b7f000000000000000000000000000000000000000000000000000000000000000073ffffffffffffffffffffffffffffffffffffffff16632e1a7d4d826001845103815181106113b257fe5b60200260200101516040518263ffffffff1660e01b815260040180828152602001915050600060405180830381600087803b1580156113f057600080fd5b505af1158015611404573d6000803e3d6000fd5b50505050611429838260018451038151811061141c57fe5b6020026020010151613e9c565b9695505050505050565b60606114607f00000000000000000000000000000000000000000000000000000000000000008484613ffb565b905092915050565b60606114d67f000000000000000000000000000000000000000000000000000000000000000088878780806020026020016040519081016040528093929190818152602001838360200280828437600081840152601f19601f8201169050808301925050505050505061370d565b905085816001835103815181106114e957fe5b60200260200101511015611548576040517f08c379a000000000000000000000000000000000000000000000000000000000815260040180806020018281038252602b815260200180615137602b913960400191505060405180910390fd5b61160d8585600081811061155857fe5b9050602002013573ffffffffffffffffffffffffffffffffffffffff16336115f37f0000000000000000000000000000000000000000000000000000000000000000898960008181106115a757fe5b9050602002013573ffffffffffffffffffffffffffffffffffffffff168a8a60018181106115d157fe5b9050602002013573ffffffffffffffffffffffffffffffffffffffff16613885565b8460008151811061160057fe5b60200260200101516139e0565b61165981868680806020026020016040519081016040528093929190818152602001838360200280828437600081840152601f19601f8201169050808301925050505050505085613bf1565b9695505050505050565b60607f000000000000000000000000000000000000000000000000000000000000000073ffffffffffffffffffffffffffffffffffffffff168585600188889050038181106116ae57fe5b9050602002013573ffffffffffffffffffffffffffffffffffffffff1673ffffffffffffffffffffffffffffffffffffffff1614611754576040517f08c379a000000000000000000000000000000000000000000000000000000000815260040180806020018281038252601d8152602001807f556e69737761705632526f757465723a20494e56414c49445f5041544800000081525060200191505060405180910390fd5b6117c07f000000000000000000000000000000000000000000000000000000000000000088878780806020026020016040519081016040528093929190818152602001838360200280828437600081840152601f19601f82011690508083019250505050505050613ffb565b905085816000815181106117d057fe5b6020026020010151111561182f576040517f08c379a00000000000000000000000000000000000000000000000000000000081526004018080602001828103825260278152602001806150c76027913960400191505060405180910390fd5b6118f48585600081811061183f57fe5b9050602002013573ffffffffffffffffffffffffffffffffffffffff16336118da7f00000000000000000000000000000000000000000000000000000000000000008989600081811061188e57fe5b9050602002013573ffffffffffffffffffffffffffffffffffffffff168a8a60018181106118b857fe5b9050602002013573ffffffffffffffffffffffffffffffffffffffff16613885565b846000815181106118e757fe5b60200260200101516139e0565b61194081868680806020026020016040519081016040528093929190818152602001838360200280828437600081840152601f19601f8201169050808301925050505050505030613bf1565b7f000000000000000000000000000000000000000000000000000000000000000073ffffffffffffffffffffffffffffffffffffffff16632e1a7d4d8260018451038151811061198c57fe5b60200260200101516040518263ffffffff1660e01b815260040180828152602001915050600060405180830381600087803b1580156119ca57600080fd5b505af11580156119de573d6000803e3d6000fd5b50505050611a0383826001845103815181106119f657fe5b6020026020010151613e9c565b9695505050505050565b611abe84846000818110611a1d57fe5b9050602002013573ffffffffffffffffffffffffffffffffffffffff1633611ab87f000000000000000000000000000000000000000000000000000000000000000088886000818110611a6c57fe5b9050602002013573ffffffffffffffffffffffffffffffffffffffff1689896001818110611a9657fe5b9050602002013573ffffffffffffffffffffffffffffffffffffffff16613885565b896139e0565b6000848460018787905003818110611ad257fe5b9050602002013573ffffffffffffffffffffffffffffffffffffffff1673ffffffffffffffffffffffffffffffffffffffff166370a08231846040518263ffffffff1660e01b8152600401808273ffffffffffffffffffffffffffffffffffffffff1673ffffffffffffffffffffffffffffffffffffffff16815260200191505060206040518083038186803b158015611b6b57600080fd5b505afa158015611b7f573d6000803e3d6000fd5b505050506040513d6020811015611b9557600080fd5b81019080805190602001909291905050509050611bf3858580806020026020016040519081016040528093929190818152602001838360200280828437600081840152601f19601f820116905080830192505050505050508461417b565b85611cec82878760018a8a905003818110611c0a57fe5b9050602002013573ffffffffffffffffffffffffffffffffffffffff1673ffffffffffffffffffffffffffffffffffffffff166370a08231876040518263ffffffff1660e01b8152600401808273ffffffffffffffffffffffffffffffffffffffff1673ffffffffffffffffffffffffffffffffffffffff16815260200191505060206040518083038186803b158015611ca357600080fd5b505afa158015611cb7573d6000803e3d6000fd5b505050506040513d6020811015611ccd57600080fd5b81019080805190602001909291905050506145f290919063ffffffff16565b1015611d43576040517f08c379a000000000000000000000000000000000000000000000000000000000815260040180806020018281038252602b815260200180615137602b913960400191505060405180910390fd5b50505050505050565b6000806000611d7f887f000000000000000000000000000000000000000000000000000000000000000089348a8a614675565b80935081945050506000611dd47f00000000000000000000000000000000000000000000000000000000000000008a7f0000000000000000000000000000000000000000000000000000000000000000613885565b9050611de2893383876139e0565b7f000000000000000000000000000000000000000000000000000000000000000073ffffffffffffffffffffffffffffffffffffffff1663d0e30db0846040518263ffffffff1660e01b81526004016000604051808303818588803b158015611e4a57600080fd5b505af1158015611e5e573d6000803e3d6000fd5b50505050507f000000000000000000000000000000000000000000000000000000000000000073ffffffffffffffffffffffffffffffffffffffff1663a9059cbb82856040518363ffffffff1660e01b8152600401808373ffffffffffffffffffffffffffffffffffffffff1673ffffffffffffffffffffffffffffffffffffffff16815260200182815260200192505050602060405180830381600087803b158015611f0a57600080fd5b505af1158015611f1e573d6000803e3d6000fd5b505050506040513d6020811015611f3457600080fd5b8101908080519060200190929190505050611f4b57fe5b8073ffffffffffffffffffffffffffffffffffffffff16636a627842866040518263ffffffff1660e01b8152600401808273ffffffffffffffffffffffffffffffffffffffff1673ffffffffffffffffffffffffffffffffffffffff168152602001915050602060405180830381600087803b158015611fca57600080fd5b505af1158015611fde573d6000803e3d6000fd5b505050506040513d6020811015611ff457600080fd5b810190808051906020019092919050505091508234111561201c5761201b33843403613e9c565b5b50955095509592505050565b7f000000000000000000000000000000000000000000000000000000000000000073ffffffffffffffffffffffffffffffffffffffff1684846001878790500381811061207157fe5b9050602002013573ffffffffffffffffffffffffffffffffffffffff1673ffffffffffffffffffffffffffffffffffffffff1614612117576040517f08c379a000000000000000000000000000000000000000000000000000000000815260040180806020018281038252601d8152602001807f556e69737761705632526f757465723a20494e56414c49445f5041544800000081525060200191505060405180910390fd5b6121c88484600081811061212757fe5b9050602002013573ffffffffffffffffffffffffffffffffffffffff16336121c27f00000000000000000000000000000000000000000000000000000000000000008888600081811061217657fe5b9050602002013573ffffffffffffffffffffffffffffffffffffffff16898960018181106121a057fe5b9050602002013573ffffffffffffffffffffffffffffffffffffffff16613885565b896139e0565b612213848480806020026020016040519081016040528093929190818152602001838360200280828437600081840152601f19601f820116905080830192505050505050503061417b565b60007f000000000000000000000000000000000000000000000000000000000000000073ffffffffffffffffffffffffffffffffffffffff166370a08231306040518263ffffffff1660e01b8152600401808273ffffffffffffffffffffffffffffffffffffffff1673ffffffffffffffffffffffffffffffffffffffff16815260200191505060206040518083038186803b1580156122b257600080fd5b505afa1580156122c6573d6000803e3d6000fd5b505050506040513d60208110156122dc57600080fd5b8101908080519060200190929190505050905085811015612348576040517f08c379a000000000000000000000000000000000000000000000000000000000815260040180806020018281038252602b815260200180615137602b913960400191505060405180910390fd5b7f000000000000000000000000000000000000000000000000000000000000000073ffffffffffffffffffffffffffffffffffffffff16632e1a7d4d826040518263ffffffff1660e01b815260040180828152602001915050600060405180830381600087803b1580156123bb57600080fd5b505af11580156123cf573d6000803e3d6000fd5b505050506123dd8382613e9c565b50505050505050565b60006124137f00000000000000000000000000000000000000000000000000000000000000008484613885565b905092915050565b60607f000000000000000000000000000000000000000000000000000000000000000073ffffffffffffffffffffffffffffffffffffffff168585600081811061246157fe5b9050602002013573ffffffffffffffffffffffffffffffffffffffff1673ffffffffffffffffffffffffffffffffffffffff1614612507576040517f08c379a000000000000000000000000000000000000000000000000000000000815260040180806020018281038252601d8152602001807f556e69737761705632526f757465723a20494e56414c49445f5041544800000081525060200191505060405180910390fd5b6125737f000000000000000000000000000000000000000000000000000000000000000034878780806020026020016040519081016040528093929190818152602001838360200280828437600081840152601f19601f8201169050808301925050505050505061370d565b9050858160018351038151811061258657fe5b602002602001015110156125e5576040517f08c379a000000000000000000000000000000000000000000000000000000000815260040180806020018281038252602b815260200180615137602b913960400191505060405180910390fd5b7f000000000000000000000000000000000000000000000000000000000000000073ffffffffffffffffffffffffffffffffffffffff1663d0e30db08260008151811061262e57fe5b60200260200101516040518263ffffffff1660e01b81526004016000604051808303818588803b15801561266157600080fd5b505af1158015612675573d6000803e3d6000fd5b50505050507f000000000000000000000000000000000000000000000000000000000000000073ffffffffffffffffffffffffffffffffffffffff1663a9059cbb6127337f0000000000000000000000000000000000000000000000000000000000000000888860008181106126e757fe5b9050602002013573ffffffffffffffffffffffffffffffffffffffff168989600181811061271157fe5b9050602002013573ffffffffffffffffffffffffffffffffffffffff16613885565b8360008151811061274057fe5b60200260200101516040518363ffffffff1660e01b8152600401808373ffffffffffffffffffffffffffffffffffffffff1673ffffffffffffffffffffffffffffffffffffffff16815260200182815260200192505050602060405180830381600087803b1580156127b157600080fd5b505af11580156127c5573d6000803e3d6000fd5b505050506040513d60208110156127db57600080fd5b81019080805190602001909291905050506127f257fe5b61283e81868680806020026020016040519081016040528093929190818152602001838360200280828437600081840152601f19601f8201169050808301925050505050505085613bf1565b95945050505050565b6000612854848484614a29565b90509392505050565b60606128cb7f000000000000000000000000000000000000000000000000000000000000000088878780806020026020016040519081016040528093929190818152602001838360200280828437600081840152601f19601f82011690508083019250505050505050613ffb565b905085816000815181106128db57fe5b6020026020010151111561293a576040517f08c379a00000000000000000000000000000000000000000000000000000000081526004018080602001828103825260278152602001806150c76027913960400191505060405180910390fd5b6129ff8585600081811061294a57fe5b9050602002013573ffffffffffffffffffffffffffffffffffffffff16336129e57f00000000000000000000000000000000000000000000000000000000000000008989600081811061299957fe5b9050602002013573ffffffffffffffffffffffffffffffffffffffff168a8a60018181106129c357fe5b9050602002013573ffffffffffffffffffffffffffffffffffffffff16613885565b846000815181106129f257fe5b60200260200101516139e0565b612a4b81868680806020026020016040519081016040528093929190818152602001838360200280828437600081840152601f19601f8201169050808301925050505050505085613bf1565b9695505050505050565b7f000000000000000000000000000000000000000000000000000000000000000081565b6000612a86848484614b66565b90509392505050565b7f000000000000000000000000000000000000000000000000000000000000000073ffffffffffffffffffffffffffffffffffffffff1684846000818110612ad357fe5b9050602002013573ffffffffffffffffffffffffffffffffffffffff1673ffffffffffffffffffffffffffffffffffffffff1614612b79576040517f08c379a000000000000000000000000000000000000000000000000000000000815260040180806020018281038252601d8152602001807f556e69737761705632526f757465723a20494e56414c49445f5041544800000081525060200191505060405180910390fd5b60003490507f000000000000000000000000000000000000000000000000000000000000000073ffffffffffffffffffffffffffffffffffffffff1663d0e30db0826040518263ffffffff1660e01b81526004016000604051808303818588803b158015612be657600080fd5b505af1158015612bfa573d6000803e3d6000fd5b50505050507f000000000000000000000000000000000000000000000000000000000000000073ffffffffffffffffffffffffffffffffffffffff1663a9059cbb612cb87f000000000000000000000000000000000000000000000000000000000000000088886000818110612c6c57fe5b9050602002013573ffffffffffffffffffffffffffffffffffffffff1689896001818110612c9657fe5b9050602002013573ffffffffffffffffffffffffffffffffffffffff16613885565b836040518363ffffffff1660e01b8152600401808373ffffffffffffffffffffffffffffffffffffffff1673ffffffffffffffffffffffffffffffffffffffff16815260200182815260200192505050602060405180830381600087803b158015612d2257600080fd5b505af1158015612d36573d6000803e3d6000fd5b505050506040513d6020811015612d4c57600080fd5b8101908080519060200190929190505050612d6357fe5b6000858560018888905003818110612d7757fe5b9050602002013573ffffffffffffffffffffffffffffffffffffffff1673ffffffffffffffffffffffffffffffffffffffff166370a08231856040518263ffffffff1660e01b8152600401808273ffffffffffffffffffffffffffffffffffffffff1673ffffffffffffffffffffffffffffffffffffffff16815260200191505060206040518083038186803b158015612e1057600080fd5b505afa158015612e24573d6000803e3d6000fd5b505050506040513d6020811015612e3a57600080fd5b81019080805190602001909291905050509050612e98868680806020026020016040519081016040528093929190818152602001838360200280828437600081840152601f19601f820116905080830192505050505050508561417b565b86612f9182888860018b8b905003818110612eaf57fe5b9050602002013573ffffffffffffffffffffffffffffffffffffffff1673ffffffffffffffffffffffffffffffffffffffff166370a08231886040518263ffffffff1660e01b8152600401808273ffffffffffffffffffffffffffffffffffffffff1673ffffffffffffffffffffffffffffffffffffffff16815260200191505060206040518083038186803b158015612f4857600080fd5b505afa158015612f5c573d6000803e3d6000fd5b505050506040513d6020811015612f7257600080fd5b81019080805190602001909291905050506145f290919063ffffffff16565b1015612fe8576040517f08c379a000000000000000000000000000000000000000000000000000000000815260040180806020018281038252602b815260200180615137602b913960400191505060405180910390fd5b50505050505050565b7f000000000000000000000000000000000000000000000000000000000000000081565b60606130427f0000000000000000000000000000000000000000000000000000000000000000848461370d565b905092915050565b600080600061305d8b8b8b8b8b8b614675565b809350819450505060006130927f00000000000000000000000000000000000000000000000000000000000000008d8d613885565b90506130a08c3383876139e0565b6130ac8b3383866139e0565b8073ffffffffffffffffffffffffffffffffffffffff16636a627842876040518263ffffffff1660e01b8152600401808273ffffffffffffffffffffffffffffffffffffffff1673ffffffffffffffffffffffffffffffffffffffff168152602001915050602060405180830381600087803b15801561312b57600080fd5b505af115801561313f573d6000803e3d6000fd5b505050506040513d602081101561315557600080fd5b8101908080519060200190929190505050915050985098509895505050505050565b60607f000000000000000000000000000000000000000000000000000000000000000073ffffffffffffffffffffffffffffffffffffffff16858560008181106131bd57fe5b9050602002013573ffffffffffffffffffffffffffffffffffffffff1673ffffffffffffffffffffffffffffffffffffffff1614613263576040517f08c379a000000000000000000000000000000000000000000000000000000000815260040180806020018281038252601d8152602001807f556e69737761705632526f757465723a20494e56414c49445f5041544800000081525060200191505060405180910390fd5b6132cf7f000000000000000000000000000000000000000000000000000000000000000087878780806020026020016040519081016040528093929190818152602001838360200280828437600081840152601f19601f82011690508083019250505050505050613ffb565b905034816000815181106132df57fe5b6020026020010151111561333e576040517f08c379a00000000000000000000000000000000000000000000000000000000081526004018080602001828103825260278152602001806150c76027913960400191505060405180910390fd5b7f000000000000000000000000000000000000000000000000000000000000000073ffffffffffffffffffffffffffffffffffffffff1663d0e30db08260008151811061338757fe5b60200260200101516040518263ffffffff1660e01b81526004016000604051808303818588803b1580156133ba57600080fd5b505af11580156133ce573d6000803e3d6000fd5b50505050507f000000000000000000000000000000000000000000000000000000000000000073ffffffffffffffffffffffffffffffffffffffff1663a9059cbb61348c7f00000000000000000000000000000000000000000000000000000000000000008888600081811061344057fe5b9050602002013573ffffffffffffffffffffffffffffffffffffffff168989600181811061346a57fe5b9050602002013573ffffffffffffffffffffffffffffffffffffffff16613885565b8360008151811061349957fe5b60200260200101516040518363ffffffff1660e01b8152600401808373ffffffffffffffffffffffffffffffffffffffff1673ffffffffffffffffffffffffffffffffffffffff16815260200182815260200192505050602060405180830381600087803b15801561350a57600080fd5b505af115801561351e573d6000803e3d6000fd5b505050506040513d602081101561353457600080fd5b810190808051906020019092919050505061354b57fe5b61359781868680806020026020016040519081016040528093929190818152602001838360200280828437600081840152601f19601f8201169050808301925050505050505085613bf1565b806000815181106135a457fe5b60200260200101513411156135d4576135d333826000815181106135c457fe5b60200260200101513403613e9c565b5b95945050505050565b6000808411613637576040517f08c379a000000000000000000000000000000000000000000000000000000000815260040180806020018281038252602b815260200180615186602b913960400191505060405180910390fd5b6000831180156136475750600082115b61369c576040517f08c379a000000000000000000000000000000000000000000000000000000000815260040180806020018281038252602881526020018061507a6028913960400191505060405180910390fd5b60006136b36103e586614c4a90919063ffffffff16565b905060006136ca8483614c4a90919063ffffffff16565b905060006136f5836136e76103e889614c4a90919063ffffffff16565b614cdf90919063ffffffff16565b905080828161370057fe5b0493505050509392505050565b6060600282511015613787576040517f08c379a000000000000000000000000000000000000000000000000000000000815260040180806020018281038252601e8152602001807f556e697377617056324c6962726172793a20494e56414c49445f50415448000081525060200191505060405180910390fd5b815167ffffffffffffffff8111801561379f57600080fd5b506040519080825280602002602001820160405280156137ce5781602001602082028036833780820191505090505b50905082816000815181106137df57fe5b60200260200101818152505060005b600183510381101561387d576000806138318786858151811061380d57fe5b602002602001015187600187018151811061382457fe5b6020026020010151614d62565b9150915061385384848151811061384457fe5b602002602001015183836135dd565b84600185018151811061386257fe5b602002602001018181525050505080806001019150506137ee565b509392505050565b60008060006138948585614e8b565b91509150858282604051602001808373ffffffffffffffffffffffffffffffffffffffff1673ffffffffffffffffffffffffffffffffffffffff1660601b81526014018273ffffffffffffffffffffffffffffffffffffffff1673ffffffffffffffffffffffffffffffffffffffff1660601b8152601401925050506040516020818303038152906040528051906020012060405160200180807fff000000000000000000000000000000000000000000000000000000000000008152506001018373ffffffffffffffffffffffffffffffffffffffff1673ffffffffffffffffffffffffffffffffffffffff1660601b8152601401828152602001807ff9ed55e853e1ed03a7d0c0450cbf431b9e1f00ea6e8160be32dc812e3215c89a815250602001925050506040516020818303038152906040528051906020012060001c925050509392505050565b600060608573ffffffffffffffffffffffffffffffffffffffff166323b872dd868686604051602401808473ffffffffffffffffffffffffffffffffffffffff1673ffffffffffffffffffffffffffffffffffffffff1681526020018373ffffffffffffffffffffffffffffffffffffffff1673ffffffffffffffffffffffffffffffffffffffff16815260200182815260200193505050506040516020818303038152906040529060e01b6020820180517bffffffffffffffffffffffffffffffffffffffffffffffffffffffff83818316178352505050506040518082805190602001908083835b60208310613aed5780518252602082019150602081019050602083039250613aca565b6001836020036101000a0380198251168184511680821785525050505050509050019150506000604051808303816000865af19150503d8060008114613b4f576040519150601f19603f3d011682016040523d82523d6000602084013e613b54565b606091505b5091509150818015613b945750600081511480613b935750808060200190516020811015613b8157600080fd5b81019080805190602001909291905050505b5b613be9576040517f08c379a00000000000000000000000000000000000000000000000000000000081526004018080602001828103825260248152602001806151626024913960400191505060405180910390fd5b505050505050565b60005b6001835103811015613e9657600080848381518110613c0f57fe5b6020026020010151856001850181518110613c2657fe5b6020026020010151915091506000613c3e8383614e8b565b5090506000876001860181518110613c5257fe5b602002602001015190506000808373ffffffffffffffffffffffffffffffffffffffff168673ffffffffffffffffffffffffffffffffffffffff1614613c9a57826000613c9e565b6000835b91509150600060028a51038810613cb55788613cf7565b613cf67f0000000000000000000000000000000000000000000000000000000000000000878c60028c0181518110613ce957fe5b6020026020010151613885565b5b9050613d247f00000000000000000000000000000000000000000000000000000000000000008888613885565b73ffffffffffffffffffffffffffffffffffffffff1663022c0d9f848484600067ffffffffffffffff81118015613d5a57600080fd5b506040519080825280601f01601f191660200182016040528015613d8d5781602001600182028036833780820191505090505b506040518563ffffffff1660e01b8152600401808581526020018481526020018373ffffffffffffffffffffffffffffffffffffffff1673ffffffffffffffffffffffffffffffffffffffff16815260200180602001828103825283818151815260200191508051906020019080838360005b83811015613e1b578082015181840152602081019050613e00565b50505050905090810190601f168015613e485780820380516001836020036101000a031916815260200191505b5095505050505050600060405180830381600087803b158015613e6a57600080fd5b505af1158015613e7e573d6000803e3d6000fd5b50505050505050505050508080600101915050613bf4565b50505050565b60008273ffffffffffffffffffffffffffffffffffffffff1682600067ffffffffffffffff81118015613ece57600080fd5b506040519080825280601f01601f191660200182016040528015613f015781602001600182028036833780820191505090505b506040518082805190602001908083835b60208310613f355780518252602082019150602081019050602083039250613f12565b6001836020036101000a03801982511681845116808217855250505050505090500191505060006040518083038185875af1925050503d8060008114613f97576040519150601f19603f3d011682016040523d82523d6000602084013e613f9c565b606091505b5050905080613ff6576040517f08c379a00000000000000000000000000000000000000000000000000000000081526004018080602001828103825260238152602001806151146023913960400191505060405180910390fd5b505050565b6060600282511015614075576040517f08c379a000000000000000000000000000000000000000000000000000000000815260040180806020018281038252601e8152602001807f556e697377617056324c6962726172793a20494e56414c49445f50415448000081525060200191505060405180910390fd5b815167ffffffffffffffff8111801561408d57600080fd5b506040519080825280602002602001820160405280156140bc5781602001602082028036833780820191505090505b50905082816001835103815181106140d057fe5b6020026020010181815250506000600183510390505b6000811115614173576000806141268786600186038151811061410557fe5b602002602001015187868151811061411957fe5b6020026020010151614d62565b9150915061414884848151811061413957fe5b60200260200101518383614a29565b84600185038151811061415757fe5b60200260200101818152505050508080600190039150506140e6565b509392505050565b60005b60018351038110156145ed5760008084838151811061419957fe5b60200260200101518560018501815181106141b057fe5b60200260200101519150915060006141c88383614e8b565b50905060006141f87f00000000000000000000000000000000000000000000000000000000000000008585613885565b90506000806000808473ffffffffffffffffffffffffffffffffffffffff16630902f1ac6040518163ffffffff1660e01b815260040160606040518083038186803b15801561424657600080fd5b505afa15801561425a573d6000803e3d6000fd5b505050506040513d606081101561427057600080fd5b81019080805190602001909291908051906020019092919080519060200190929190505050506dffffffffffffffffffffffffffff1691506dffffffffffffffffffffffffffff1691506000808773ffffffffffffffffffffffffffffffffffffffff168a73ffffffffffffffffffffffffffffffffffffffff16146142f75782846142fa565b83835b915091506143c8828b73ffffffffffffffffffffffffffffffffffffffff166370a082318a6040518263ffffffff1660e01b8152600401808273ffffffffffffffffffffffffffffffffffffffff1673ffffffffffffffffffffffffffffffffffffffff16815260200191505060206040518083038186803b15801561437f57600080fd5b505afa158015614393573d6000803e3d6000fd5b505050506040513d60208110156143a957600080fd5b81019080805190602001909291905050506145f290919063ffffffff16565b95506143d58683836135dd565b9450505050506000808573ffffffffffffffffffffffffffffffffffffffff168873ffffffffffffffffffffffffffffffffffffffff16146144195782600061441d565b6000835b91509150600060028c51038a10614434578a614476565b6144757f0000000000000000000000000000000000000000000000000000000000000000898e60028e018151811061446857fe5b6020026020010151613885565b5b90508573ffffffffffffffffffffffffffffffffffffffff1663022c0d9f848484600067ffffffffffffffff811180156144af57600080fd5b506040519080825280601f01601f1916602001820160405280156144e25781602001600182028036833780820191505090505b506040518563ffffffff1660e01b8152600401808581526020018481526020018373ffffffffffffffffffffffffffffffffffffffff1673ffffffffffffffffffffffffffffffffffffffff16815260200180602001828103825283818151815260200191508051906020019080838360005b83811015614570578082015181840152602081019050614555565b50505050905090810190601f16801561459d5780820380516001836020036101000a031916815260200191505b5095505050505050600060405180830381600087803b1580156145bf57600080fd5b505af11580156145d3573d6000803e3d6000fd5b50505050505050505050505050808060010191505061417e565b505050565b600082828403915081111561466f576040517f08c379a00000000000000000000000000000000000000000000000000000000081526004018080602001828103825260158152602001807f64732d6d6174682d7375622d756e646572666c6f77000000000000000000000081525060200191505060405180910390fd5b92915050565b600080600073ffffffffffffffffffffffffffffffffffffffff167f000000000000000000000000000000000000000000000000000000000000000073ffffffffffffffffffffffffffffffffffffffff1663e6a439058a8a6040518363ffffffff1660e01b8152600401808373ffffffffffffffffffffffffffffffffffffffff1673ffffffffffffffffffffffffffffffffffffffff1681526020018273ffffffffffffffffffffffffffffffffffffffff1673ffffffffffffffffffffffffffffffffffffffff1681526020019250505060206040518083038186803b15801561476157600080fd5b505afa158015614775573d6000803e3d6000fd5b505050506040513d602081101561478b57600080fd5b810190808051906020019092919050505073ffffffffffffffffffffffffffffffffffffffff1614156148c8577f000000000000000000000000000000000000000000000000000000000000000073ffffffffffffffffffffffffffffffffffffffff1663c9c6539689896040518363ffffffff1660e01b8152600401808373ffffffffffffffffffffffffffffffffffffffff1673ffffffffffffffffffffffffffffffffffffffff1681526020018273ffffffffffffffffffffffffffffffffffffffff1673ffffffffffffffffffffffffffffffffffffffff16815260200192505050602060405180830381600087803b15801561488b57600080fd5b505af115801561489f573d6000803e3d6000fd5b505050506040513d60208110156148b557600080fd5b8101908080519060200190929190505050505b6000806148f67f00000000000000000000000000000000000000000000000000000000000000008b8b614d62565b9150915060008214801561490a5750600081145b1561491e5787878094508195505050614a1c565b600061492b898484614b66565b905087811161499c578581101561498d576040517f08c379a00000000000000000000000000000000000000000000000000000000081526004018080602001828103825260268152602001806150546026913960400191505060405180910390fd5b88818095508196505050614a1a565b60006149a9898486614b66565b9050898111156149b557fe5b87811015614a0e576040517f08c379a00000000000000000000000000000000000000000000000000000000081526004018080602001828103825260268152602001806150ee6026913960400191505060405180910390fd5b80898096508197505050505b505b5050965096945050505050565b6000808411614a83576040517f08c379a000000000000000000000000000000000000000000000000000000000815260040180806020018281038252602c815260200180615003602c913960400191505060405180910390fd5b600083118015614a935750600082115b614ae8576040517f08c379a000000000000000000000000000000000000000000000000000000000815260040180806020018281038252602881526020018061507a6028913960400191505060405180910390fd5b6000614b116103e8614b038787614c4a90919063ffffffff16565b614c4a90919063ffffffff16565b90506000614b3c6103e5614b2e88876145f290919063ffffffff16565b614c4a90919063ffffffff16565b9050614b5b6001828481614b4c57fe5b04614cdf90919063ffffffff16565b925050509392505050565b6000808411614bc0576040517f08c379a00000000000000000000000000000000000000000000000000000000081526004018080602001828103825260258152602001806150a26025913960400191505060405180910390fd5b600083118015614bd05750600082115b614c25576040517f08c379a000000000000000000000000000000000000000000000000000000000815260040180806020018281038252602881526020018061507a6028913960400191505060405180910390fd5b82614c398386614c4a90919063ffffffff16565b81614c4057fe5b0490509392505050565b600080821480614c675750828283850292508281614c6457fe5b04145b614cd9576040517f08c379a00000000000000000000000000000000000000000000000000000000081526004018080602001828103825260148152602001807f64732d6d6174682d6d756c2d6f766572666c6f7700000000000000000000000081525060200191505060405180910390fd5b92915050565b6000828284019150811015614d5c576040517f08c379a00000000000000000000000000000000000000000000000000000000081526004018080602001828103825260148152602001807f64732d6d6174682d6164642d6f766572666c6f7700000000000000000000000081525060200191505060405180910390fd5b92915050565b6000806000614d718585614e8b565b509050600080614d82888888613885565b73ffffffffffffffffffffffffffffffffffffffff16630902f1ac6040518163ffffffff1660e01b815260040160606040518083038186803b158015614dc757600080fd5b505afa158015614ddb573d6000803e3d6000fd5b505050506040513d6060811015614df157600080fd5b81019080805190602001909291908051906020019092919080519060200190929190505050506dffffffffffffffffffffffffffff1691506dffffffffffffffffffffffffffff1691508273ffffffffffffffffffffffffffffffffffffffff168773ffffffffffffffffffffffffffffffffffffffff1614614e75578082614e78565b81815b8095508196505050505050935093915050565b6000808273ffffffffffffffffffffffffffffffffffffffff168473ffffffffffffffffffffffffffffffffffffffff161415614f13576040517f08c379a000000000000000000000000000000000000000000000000000000000815260040180806020018281038252602581526020018061502f6025913960400191505060405180910390fd5b8273ffffffffffffffffffffffffffffffffffffffff168473ffffffffffffffffffffffffffffffffffffffff1610614f4d578284614f50565b83835b8092508193505050600073ffffffffffffffffffffffffffffffffffffffff168273ffffffffffffffffffffffffffffffffffffffff161415614ffb576040517f08c379a000000000000000000000000000000000000000000000000000000000815260040180806020018281038252601e8152602001807f556e697377617056324c6962726172793a205a45524f5f41444452455353000081525060200191505060405180910390fd5b925092905056fe556e697377617056324c6962726172793a20494e53554646494349454e545f4f55545055545f414d4f554e54556e697377617056324c6962726172793a204944454e544943414c5f414444524553534553556e69737761705632526f757465723a20494e53554646494349454e545f425f414d4f554e54556e697377617056324c6962726172793a20494e53554646494349454e545f4c4951554944495459556e697377617056324c6962726172793a20494e53554646494349454e545f414d4f554e54556e69737761705632526f757465723a204558434553534956455f494e5055545f414d4f554e54556e69737761705632526f757465723a20494e53554646494349454e545f415f414d4f554e545472616e7366657248656c7065723a204554485f5452414e534645525f4641494c4544556e69737761705632526f757465723a20494e53554646494349454e545f4f55545055545f414d4f554e545472616e7366657248656c7065723a205452414e534645525f46524f4d5f4641494c4544556e697377617056324c6962726172793a20494e53554646494349454e545f494e5055545f414d4f554e54a2646970667358221220990b643b3fc0476b763a87243bd792b0392b39ad042a8ad4def5366d463cb49964736f6c63430006060033",
  "immutableReferences": {
    "1321": [
      {
        "length": 32,
        "start": 4476
      },
      {
        "length": 32,
        "start": 4744
      },
      {
        "length": 32,
        "start": 5178
      },
      {
        "length": 32,
        "start": 5231
      },
      {
        "length": 32,
        "start": 5499
      },
      {
        "length": 32,
        "start": 5977
      },
      {
        "length": 32,
        "start": 6242
      },
      {
        "length": 32,
        "start": 6720
      },
      {
        "length": 32,
        "start": 7566
      },
      {
        "length": 32,
        "start": 8522
      },
      {
        "length": 32,
        "start": 9197
      },
      {
        "length": 32,
        "start": 9484
      },
      {
        "length": 32,
        "start": 9915
      },
      {
        "length": 32,
        "start": 10340
      },
      {
        "length": 32,
        "start": 10605
      },
      {
        "length": 32,
        "start": 11328
      },
      {
        "length": 32,
        "start": 12275
      },
      {
        "length": 32,
        "start": 12316
      },
      {
        "length": 32,
        "start": 12396
      },
      {
        "length": 32,
        "start": 12904
      },
      {
        "length": 32,
        "start": 13332
      },
      {
        "length": 32,
        "start": 15546
      },
      {
        "length": 32,
        "start": 15614
      },
      {
        "length": 32,
        "start": 16850
      },
      {
        "length": 32,
        "start": 17465
      },
      {
        "length": 32,
        "start": 18066
      },
      {
        "length": 32,
        "start": 18362
      },
      {
        "length": 32,
        "start": 18640
      }
    ],
    "1324": [
      {
        "length": 32,
        "start": 287
      },
      {
        "length": 32,
        "start": 4234
      },
      {
        "length": 32,
        "start": 4968
      },
      {
        "length": 32,
        "start": 5735
      },
      {
        "length": 32,
        "start": 6466
      },
      {
        "length": 32,
        "start": 7511
      },
      {
        "length": 32,
        "start": 7600
      },
      {
        "length": 32,
        "start": 7652
      },
      {
        "length": 32,
        "start": 7781
      },
      {
        "length": 32,
        "start": 8234
      },
      {
        "length": 32,
        "start": 8727
      },
      {
        "length": 32,
        "start": 9034
      },
      {
        "length": 32,
        "start": 9247
      },
      {
        "length": 32,
        "start": 9703
      },
      {
        "length": 32,
        "start": 9852
      },
      {
        "length": 32,
        "start": 10839
      },
      {
        "length": 32,
        "start": 10897
      },
      {
        "length": 32,
        "start": 11136
      },
      {
        "length": 32,
        "start": 11265
      },
      {
        "length": 32,
        "start": 12667
      },
      {
        "length": 32,
        "start": 13120
      },
      {
        "length": 32,
        "start": 13269
      }
    ]
  },
  "source": "pragma solidity =0.6.6;\n\nimport \"@uniswap/v2-core/contracts/interfaces/IUniswapV2Factory.sol\";\nimport \"@uniswap/lib/contracts/libraries/TransferHelper.sol\";\n\nimport \"./interfaces/IUniswapV2Router02.sol\";\nimport \"./libraries/UniswapV2Library.sol\";\nimport \"./libraries/SafeMath.sol\";\nimport \"./interfaces/IERC20.sol\";\nimport \"./interfaces/IWETH.sol\";\n\ncontract UniswapV2Router02 is IUniswapV2Router02 {\n    using SafeMath for uint256;\n\n    address public immutable override factory;\n    address public immutable override  WETH;\n\n    modifier ensure(uint256 deadline) {\n        require(deadline >= block.timestamp, \"UniswapV2Router: EXPIRED\");\n        _;\n    }\n\n    constructor(address _factory, address _WETH) public {\n        factory = _factory;\n        WETH = _WETH;\n    }\n\n    receive() external payable {\n        assert(msg.sender == WETH); // only accept ETH via fallback from the WETH contract\n    }\n\n    // **** ADD LIQUIDITY ****\n    function _addLiquidity(\n        address tokenA,\n        address tokenB,\n        uint256 amountADesired,\n        uint256 amountBDesired,\n        uint256 amountAMin,\n        uint256 amountBMin\n    ) internal virtual returns (uint256 amountA, uint256 amountB) {\n        // create the pair if it doesn't exist yet\n        if (IUniswapV2Factory(factory).getPair(tokenA, tokenB) == address(0)) {\n            IUniswapV2Factory(factory).createPair(tokenA, tokenB);\n        }\n        (uint256 reserveA, uint256 reserveB) = UniswapV2Library.getReserves(\n            factory,\n            tokenA,\n            tokenB\n        );\n        if (reserveA == 0 && reserveB == 0) {\n            (amountA, amountB) = (amountADesired, amountBDesired);\n        } else {\n            uint256 amountBOptimal = UniswapV2Library.quote(\n                amountADesired,\n                reserveA,\n                reserveB\n            );\n            if (amountBOptimal <= amountBDesired) {\n                require(\n                    amountBOptimal >= amountBMin,\n                    \"UniswapV2Router: INSUFFICIENT_B_AMOUNT\"\n                );\n                (amountA, amountB) = (amountADesired, amountBOptimal);\n            } else {\n                uint256 amountAOptimal = UniswapV2Library.quote(\n                    amountBDesired,\n                    reserveB,\n                    reserveA\n                );\n                assert(amountAOptimal <= amountADesired);\n                require(\n                    amountAOptimal >= amountAMin,\n                    \"UniswapV2Router: INSUFFICIENT_A_AMOUNT\"\n                );\n                (amountA, amountB) = (amountAOptimal, amountBDesired);\n            }\n        }\n    }\n\n    function addLiquidity(\n        address tokenA,\n        address tokenB,\n        uint256 amountADesired,\n        uint256 amountBDesired,\n        uint256 amountAMin,\n        uint256 amountBMin,\n        address to,\n        uint256 deadline\n    )\n        external\n        virtual\n        override\n        returns (\n            uint256 amountA,\n            uint256 amountB,\n            uint256 liquidity\n        )\n    {\n        (amountA, amountB) = _addLiquidity(\n            tokenA,\n            tokenB,\n            amountADesired,\n            amountBDesired,\n            amountAMin,\n            amountBMin\n        );\n        address pair = UniswapV2Library.pairFor(factory, tokenA, tokenB);\n        TransferHelper.safeTransferFrom(tokenA, msg.sender, pair, amountA);\n        TransferHelper.safeTransferFrom(tokenB, msg.sender, pair, amountB);\n        liquidity = IUniswapV2Pair(pair).mint(to);\n    }\n\n    function addLiquidityETH(\n        address token,\n        uint256 amountTokenDesired,\n        uint256 amountTokenMin,\n        uint256 amountETHMin,\n        address to\n    )\n        external\n        virtual\n        override\n        payable\n        returns (\n            uint256 amountToken,\n            uint256 amountETH,\n            uint256 liquidity\n        )\n    {\n        (amountToken, amountETH) = _addLiquidity(\n            token,\n            WETH,\n            amountTokenDesired,\n            msg.value,\n            amountTokenMin,\n            amountETHMin\n        );\n        address pair = UniswapV2Library.pairFor(factory, token, WETH);\n        TransferHelper.safeTransferFrom(token, msg.sender, pair, amountToken);\n        IWETH(WETH).deposit{value: amountETH}();\n        assert(IWETH(WETH).transfer(pair, amountETH));\n        liquidity = IUniswapV2Pair(pair).mint(to);\n        // refund dust eth, if any\n        if (msg.value > amountETH)\n            TransferHelper.safeTransferETH(msg.sender, msg.value - amountETH);\n    }\n\n    // **** REMOVE LIQUIDITY ****\n    // function removeLiquidity(\n    //     address tokenA,\n    //     address tokenB,\n    //     uint256 liquidity,\n    //     uint256 amountAMin,\n    //     uint256 amountBMin,\n    //     address to,\n    //     uint256 deadline\n    // )\n    //     public\n    //     virtual\n    //     override\n    //     ensure(deadline)\n    //     returns (uint256 amountA, uint256 amountB)\n    // {\n    //     address pair = UniswapV2Library.pairFor(factory, tokenA, tokenB);\n    //     IUniswapV2Pair(pair).transferFrom(msg.sender, pair, liquidity); // send liquidity to pair\n    //     (uint256 amount0, uint256 amount1) = IUniswapV2Pair(pair).burn(to);\n    //     (address token0, ) = UniswapV2Library.sortTokens(tokenA, tokenB);\n    //     (amountA, amountB) = tokenA == token0\n    //         ? (amount0, amount1)\n    //         : (amount1, amount0);\n    //     require(\n    //         amountA >= amountAMin,\n    //         \"UniswapV2Router: INSUFFICIENT_A_AMOUNT\"\n    //     );\n    //     require(\n    //         amountB >= amountBMin,\n    //         \"UniswapV2Router: INSUFFICIENT_B_AMOUNT\"\n    //     );\n    // }\n\n    // function removeLiquidityETH(\n    //     address token,\n    //     uint256 liquidity,\n    //     uint256 amountTokenMin,\n    //     uint256 amountETHMin,\n    //     address to,\n    //     uint256 deadline\n    // )\n    //     public\n    //     virtual\n    //     override\n    //     ensure(deadline)\n    //     returns (uint256 amountToken, uint256 amountETH)\n    // {\n    //     (amountToken, amountETH) = removeLiquidity(\n    //         token,\n    //         WETH,\n    //         liquidity,\n    //         amountTokenMin,\n    //         amountETHMin,\n    //         address(this),\n    //         deadline\n    //     );\n    //     TransferHelper.safeTransfer(token, to, amountToken);\n    //     IWETH(WETH).withdraw(amountETH);\n    //     TransferHelper.safeTransferETH(to, amountETH);\n    // }\n\n    // function removeLiquidityWithPermit(\n    //     address tokenA,\n    //     address tokenB,\n    //     uint256 liquidity,\n    //     uint256 amountAMin,\n    //     uint256 amountBMin,\n    //     address to,\n    //     uint256 deadline,\n    //     bool approveMax,\n    //     uint8 v,\n    //     bytes32 r,\n    //     bytes32 s\n    // ) external virtual override returns (uint256 amountA, uint256 amountB) {\n    //     address pair = UniswapV2Library.pairFor(factory, tokenA, tokenB);\n    //     uint256 value = approveMax ? uint256(-1) : liquidity;\n    //     IUniswapV2Pair(pair).permit(\n    //         msg.sender,\n    //         address(this),\n    //         value,\n    //         deadline,\n    //         v,\n    //         r,\n    //         s\n    //     );\n    //     (amountA, amountB) = removeLiquidity(\n    //         tokenA,\n    //         tokenB,\n    //         liquidity,\n    //         amountAMin,\n    //         amountBMin,\n    //         to,\n    //         deadline\n    //     );\n    // }\n\n    // function removeLiquidityETHWithPermit(\n    //     address token,\n    //     uint256 liquidity,\n    //     uint256 amountTokenMin,\n    //     uint256 amountETHMin,\n    //     address to,\n    //     uint256 deadline,\n    //     bool approveMax,\n    //     uint8 v,\n    //     bytes32 r,\n    //     bytes32 s\n    // )\n    //     external\n    //     virtual\n    //     override\n    //     returns (uint256 amountToken, uint256 amountETH)\n    // {\n    //     address pair = UniswapV2Library.pairFor(factory, token, WETH);\n    //     uint256 value = approveMax ? uint256(-1) : liquidity;\n    //     IUniswapV2Pair(pair).permit(\n    //         msg.sender,\n    //         address(this),\n    //         value,\n    //         deadline,\n    //         v,\n    //         r,\n    //         s\n    //     );\n    //     (amountToken, amountETH) = removeLiquidityETH(\n    //         token,\n    //         liquidity,\n    //         amountTokenMin,\n    //         amountETHMin,\n    //         to,\n    //         deadline\n    //     );\n    // }\n\n    // **** REMOVE LIQUIDITY (supporting fee-on-transfer tokens) ****\n    // function removeLiquidityETHSupportingFeeOnTransferTokens(\n    //     address token,\n    //     uint256 liquidity,\n    //     uint256 amountTokenMin,\n    //     uint256 amountETHMin,\n    //     address to,\n    //     uint256 deadline\n    // ) public virtual override ensure(deadline) returns (uint256 amountETH) {\n    //     (, amountETH) = removeLiquidity(\n    //         token,\n    //         WETH,\n    //         liquidity,\n    //         amountTokenMin,\n    //         amountETHMin,\n    //         address(this),\n    //         deadline\n    //     );\n    //     TransferHelper.safeTransfer(\n    //         token,\n    //         to,\n    //         IERC20(token).balanceOf(address(this))\n    //     );\n    //     IWETH(WETH).withdraw(amountETH);\n    //     TransferHelper.safeTransferETH(to, amountETH);\n    // }\n\n    // function removeLiquidityETHWithPermitSupportingFeeOnTransferTokens(\n    //     address token,\n    //     uint256 liquidity,\n    //     uint256 amountTokenMin,\n    //     uint256 amountETHMin,\n    //     address to,\n    //     uint256 deadline,\n    //     bool approveMax,\n    //     uint8 v,\n    //     bytes32 r,\n    //     bytes32 s\n    // ) external virtual override returns (uint256 amountETH) {\n    //     address pair = UniswapV2Library.pairFor(factory, token, WETH);\n    //     uint256 value = approveMax ? uint256(-1) : liquidity;\n    //     IUniswapV2Pair(pair).permit(\n    //         msg.sender,\n    //         address(this),\n    //         value,\n    //         deadline,\n    //         v,\n    //         r,\n    //         s\n    //     );\n    //     amountETH = removeLiquidityETHSupportingFeeOnTransferTokens(\n    //         token,\n    //         liquidity,\n    //         amountTokenMin,\n    //         amountETHMin,\n    //         to,\n    //         deadline\n    //     );\n    // }\n\n    // **** SWAP ****\n    // requires the initial amount to have already been sent to the first pair\n    function _swap(\n        uint256[] memory amounts,\n        address[] memory path,\n        address _to\n    ) internal virtual {\n        for (uint256 i; i < path.length - 1; i++) {\n            (address input, address output) = (path[i], path[i + 1]);\n            (address token0, ) = UniswapV2Library.sortTokens(input, output);\n            uint256 amountOut = amounts[i + 1];\n            (uint256 amount0Out, uint256 amount1Out) = input == token0\n                ? (uint256(0), amountOut)\n                : (amountOut, uint256(0));\n            address to = i < path.length - 2\n                ? UniswapV2Library.pairFor(factory, output, path[i + 2])\n                : _to;\n            IUniswapV2Pair(UniswapV2Library.pairFor(factory, input, output))\n                .swap(amount0Out, amount1Out, to, new bytes(0));\n        }\n    }\n\n    function swapExactTokensForTokens(\n        uint256 amountIn,\n        uint256 amountOutMin,\n        address[] calldata path,\n        address to,\n        uint256 deadline\n    ) external virtual override returns (uint256[] memory amounts) {\n        amounts = UniswapV2Library.getAmountsOut(factory, amountIn, path);\n        require(\n            amounts[amounts.length - 1] >= amountOutMin,\n            \"UniswapV2Router: INSUFFICIENT_OUTPUT_AMOUNT\"\n        );\n        TransferHelper.safeTransferFrom(\n            path[0],\n            msg.sender,\n            UniswapV2Library.pairFor(factory, path[0], path[1]),\n            amounts[0]\n        );\n        _swap(amounts, path, to);\n    }\n\n    function swapTokensForExactTokens(\n        uint256 amountOut,\n        uint256 amountInMax,\n        address[] calldata path,\n        address to,\n        uint256 deadline\n    ) external virtual override returns (uint256[] memory amounts) {\n        amounts = UniswapV2Library.getAmountsIn(factory, amountOut, path);\n        require(\n            amounts[0] <= amountInMax,\n            \"UniswapV2Router: EXCESSIVE_INPUT_AMOUNT\"\n        );\n        TransferHelper.safeTransferFrom(\n            path[0],\n            msg.sender,\n            UniswapV2Library.pairFor(factory, path[0], path[1]),\n            amounts[0]\n        );\n        _swap(amounts, path, to);\n    }\n\n    function swapExactETHForTokens(\n        uint256 amountOutMin,\n        address[] calldata path,\n        address to,\n        uint256 deadline\n    ) external virtual override payable returns (uint256[] memory amounts) {\n        require(path[0] == WETH, \"UniswapV2Router: INVALID_PATH\");\n        amounts = UniswapV2Library.getAmountsOut(factory, msg.value, path);\n        require(\n            amounts[amounts.length - 1] >= amountOutMin,\n            \"UniswapV2Router: INSUFFICIENT_OUTPUT_AMOUNT\"\n        );\n        IWETH(WETH).deposit{value: amounts[0]}();\n        assert(\n            IWETH(WETH).transfer(\n                UniswapV2Library.pairFor(factory, path[0], path[1]),\n                amounts[0]\n            )\n        );\n        _swap(amounts, path, to);\n    }\n\n    function swapTokensForExactETH(\n        uint256 amountOut,\n        uint256 amountInMax,\n        address[] calldata path,\n        address to,\n        uint256 deadline\n    ) external virtual override returns (uint256[] memory amounts) {\n        require(path[path.length - 1] == WETH, \"UniswapV2Router: INVALID_PATH\");\n        amounts = UniswapV2Library.getAmountsIn(factory, amountOut, path);\n        require(\n            amounts[0] <= amountInMax,\n            \"UniswapV2Router: EXCESSIVE_INPUT_AMOUNT\"\n        );\n        TransferHelper.safeTransferFrom(\n            path[0],\n            msg.sender,\n            UniswapV2Library.pairFor(factory, path[0], path[1]),\n            amounts[0]\n        );\n        _swap(amounts, path, address(this));\n        IWETH(WETH).withdraw(amounts[amounts.length - 1]);\n        TransferHelper.safeTransferETH(to, amounts[amounts.length - 1]);\n    }\n\n    function swapExactTokensForETH(\n        uint256 amountIn,\n        uint256 amountOutMin,\n        address[] calldata path,\n        address to,\n        uint256 deadline\n    ) external virtual override returns (uint256[] memory amounts) {\n        require(path[path.length - 1] == WETH, \"UniswapV2Router: INVALID_PATH\");\n        amounts = UniswapV2Library.getAmountsOut(factory, amountIn, path);\n        require(\n            amounts[amounts.length - 1] >= amountOutMin,\n            \"UniswapV2Router: INSUFFICIENT_OUTPUT_AMOUNT\"\n        );\n        TransferHelper.safeTransferFrom(\n            path[0],\n            msg.sender,\n            UniswapV2Library.pairFor(factory, path[0], path[1]),\n            amounts[0]\n        );\n        _swap(amounts, path, address(this));\n        IWETH(WETH).withdraw(amounts[amounts.length - 1]);\n        TransferHelper.safeTransferETH(to, amounts[amounts.length - 1]);\n    }\n\n    function swapETHForExactTokens(\n        uint256 amountOut,\n        address[] calldata path,\n        address to,\n        uint256 deadline\n    ) external virtual override payable returns (uint256[] memory amounts) {\n        require(path[0] == WETH, \"UniswapV2Router: INVALID_PATH\");\n        amounts = UniswapV2Library.getAmountsIn(factory, amountOut, path);\n        require(\n            amounts[0] <= msg.value,\n            \"UniswapV2Router: EXCESSIVE_INPUT_AMOUNT\"\n        );\n        IWETH(WETH).deposit{value: amounts[0]}();\n        assert(\n            IWETH(WETH).transfer(\n                UniswapV2Library.pairFor(factory, path[0], path[1]),\n                amounts[0]\n            )\n        );\n        _swap(amounts, path, to);\n        // refund dust eth, if any\n        if (msg.value > amounts[0])\n            TransferHelper.safeTransferETH(msg.sender, msg.value - amounts[0]);\n    }\n\n    // **** SWAP (supporting fee-on-transfer tokens) ****\n    // requires the initial amount to have already been sent to the first pair\n    function _swapSupportingFeeOnTransferTokens(\n        address[] memory path,\n        address _to\n    ) internal virtual {\n        for (uint256 i; i < path.length - 1; i++) {\n            (address input, address output) = (path[i], path[i + 1]);\n            (address token0, ) = UniswapV2Library.sortTokens(input, output);\n            IUniswapV2Pair pair = IUniswapV2Pair(\n                UniswapV2Library.pairFor(factory, input, output)\n            );\n            uint256 amountInput;\n            uint256 amountOutput;\n            {\n                // scope to avoid stack too deep errors\n                (uint256 reserve0, uint256 reserve1, ) = pair.getReserves();\n                (uint256 reserveInput, uint256 reserveOutput) = input == token0\n                    ? (reserve0, reserve1)\n                    : (reserve1, reserve0);\n                amountInput = IERC20(input).balanceOf(address(pair)).sub(\n                    reserveInput\n                );\n                amountOutput = UniswapV2Library.getAmountOut(\n                    amountInput,\n                    reserveInput,\n                    reserveOutput\n                );\n            }\n            (uint256 amount0Out, uint256 amount1Out) = input == token0\n                ? (uint256(0), amountOutput)\n                : (amountOutput, uint256(0));\n            address to = i < path.length - 2\n                ? UniswapV2Library.pairFor(factory, output, path[i + 2])\n                : _to;\n            pair.swap(amount0Out, amount1Out, to, new bytes(0));\n        }\n    }\n\n    function swapExactTokensForTokensSupportingFeeOnTransferTokens(\n        uint256 amountIn,\n        uint256 amountOutMin,\n        address[] calldata path,\n        address to,\n        uint256 deadline\n    ) external virtual override {\n        TransferHelper.safeTransferFrom(\n            path[0],\n            msg.sender,\n            UniswapV2Library.pairFor(factory, path[0], path[1]),\n            amountIn\n        );\n        uint256 balanceBefore = IERC20(path[path.length - 1]).balanceOf(to);\n        _swapSupportingFeeOnTransferTokens(path, to);\n        require(\n            IERC20(path[path.length - 1]).balanceOf(to).sub(balanceBefore) >=\n                amountOutMin,\n            \"UniswapV2Router: INSUFFICIENT_OUTPUT_AMOUNT\"\n        );\n    }\n\n    function swapExactETHForTokensSupportingFeeOnTransferTokens(\n        uint256 amountOutMin,\n        address[] calldata path,\n        address to,\n        uint256 deadline\n    ) external virtual override payable {\n        require(path[0] == WETH, \"UniswapV2Router: INVALID_PATH\");\n        uint256 amountIn = msg.value;\n        IWETH(WETH).deposit{value: amountIn}();\n        assert(\n            IWETH(WETH).transfer(\n                UniswapV2Library.pairFor(factory, path[0], path[1]),\n                amountIn\n            )\n        );\n        uint256 balanceBefore = IERC20(path[path.length - 1]).balanceOf(to);\n        _swapSupportingFeeOnTransferTokens(path, to);\n        require(\n            IERC20(path[path.length - 1]).balanceOf(to).sub(balanceBefore) >=\n                amountOutMin,\n            \"UniswapV2Router: INSUFFICIENT_OUTPUT_AMOUNT\"\n        );\n    }\n\n    function swapExactTokensForETHSupportingFeeOnTransferTokens(\n        uint256 amountIn,\n        uint256 amountOutMin,\n        address[] calldata path,\n        address to,\n        uint256 deadline\n    ) external virtual override {\n        require(path[path.length - 1] == WETH, \"UniswapV2Router: INVALID_PATH\");\n        TransferHelper.safeTransferFrom(\n            path[0],\n            msg.sender,\n            UniswapV2Library.pairFor(factory, path[0], path[1]),\n            amountIn\n        );\n        _swapSupportingFeeOnTransferTokens(path, address(this));\n        uint256 amountOut = IERC20(WETH).balanceOf(address(this));\n        require(\n            amountOut >= amountOutMin,\n            \"UniswapV2Router: INSUFFICIENT_OUTPUT_AMOUNT\"\n        );\n        IWETH(WETH).withdraw(amountOut);\n        TransferHelper.safeTransferETH(to, amountOut);\n    }\n\n    // **** LIBRARY FUNCTIONS ****\n    function quote(\n        uint256 amountA,\n        uint256 reserveA,\n        uint256 reserveB\n    ) public virtual override pure returns (uint256 amountB) {\n        return UniswapV2Library.quote(amountA, reserveA, reserveB);\n    }\n\n    function getAmountOut(\n        uint256 amountIn,\n        uint256 reserveIn,\n        uint256 reserveOut\n    ) public virtual override pure returns (uint256 amountOut) {\n        return UniswapV2Library.getAmountOut(amountIn, reserveIn, reserveOut);\n    }\n\n    function getAmountIn(\n        uint256 amountOut,\n        uint256 reserveIn,\n        uint256 reserveOut\n    ) public virtual override pure returns (uint256 amountIn) {\n        return UniswapV2Library.getAmountIn(amountOut, reserveIn, reserveOut);\n    }\n\n    function getAmountsOut(uint256 amountIn, address[] memory path)\n        public\n        virtual\n        override\n        view\n        returns (uint256[] memory amounts)\n    {\n        return UniswapV2Library.getAmountsOut(factory, amountIn, path);\n    }\n\n    function getAmountsIn(uint256 amountOut, address[] memory path)\n        public\n        virtual\n        override\n        view\n        returns (uint256[] memory amounts)\n    {\n        return UniswapV2Library.getAmountsIn(factory, amountOut, path);\n    }\n\n    function getPairFor(address token0, address token1)\n        public\n        view\n        returns (address pair)\n    {\n        pair = UniswapV2Library.pairFor(factory, token0, token1);\n    }\n}\n",
  "compiler": {
    "name": "solc",
    "version": "0.6.6+commit.6c089d02.Emscripten.clang"
  },
  "schemaVersion": "3.3.1",
  "updatedAt": "2020-10-27T04:24:09.830Z",
  "devdoc": {
    "methods": {}
  },
  "userdoc": {
    "methods": {}
  }
}